{
    "contractName": "dStorage",
    "abi": [
        {
            "constant": false,
            "inputs": [
                {
                    "internalType": "string",
                    "name": "_authTicket",
                    "type": "string"
                },
                {
                    "internalType": "string",
                    "name": "_documentHash",
                    "type": "string"
                },
                {
                    "internalType": "string",
                    "name": "_lookupHash",
                    "type": "string"
                }
            ],
            "name": "uploadFile",
            "outputs": [],
            "payable": false,
            "stateMutability": "nonpayable",
            "type": "function"
        },
        {
            "constant": true,
            "inputs": [],
            "name": "blobber",
            "outputs": [
                {
                    "internalType": "address",
                    "name": "",
                    "type": "address"
                }
            ],
            "payable": false,
            "stateMutability": "view",
            "type": "function"
        },
        {
            "inputs": [],
            "payable": false,
            "stateMutability": "nonpayable",
            "type": "constructor"
        },
        {
            "anonymous": false,
            "inputs": [
                {
                    "indexed": false,
                    "internalType": "string",
                    "name": "authTicket",
                    "type": "string"
                },
                {
                    "indexed": false,
                    "internalType": "string",
                    "name": "documentHash",
                    "type": "string"
                },
                {
                    "indexed": false,
                    "internalType": "string",
                    "name": "lookupHash",
                    "type": "string"
                }
            ],
            "name": "fileUpload",
            "type": "event"
        }
    ],
    "bytecode": "608060405234801561001057600080fd5b50600080546001600160a01b031916331790556103c5806100326000396000f3fe608060405234801561001057600080fd5b50600436106100365760003560e01c806392bb481a1461003b578063c6275cba146101f1575b600080fd5b6101ef6004803603606081101561005157600080fd5b81019060208101813564010000000081111561006c57600080fd5b82018360208201111561007e57600080fd5b803590602001918460018302840111640100000000831117156100a057600080fd5b91908080601f01602080910402602001604051908101604052809392919081815260200183838082843760009201919091525092959493602081019350359150506401000000008111156100f357600080fd5b82018360208201111561010557600080fd5b8035906020019184600183028401116401000000008311171561012757600080fd5b91908080601f016020809104026020016040519081016040528093929190818152602001838380828437600092019190915250929594936020810193503591505064010000000081111561017a57600080fd5b82018360208201111561018c57600080fd5b803590602001918460018302840111640100000000831117156101ae57600080fd5b91908080601f016020809104026020016040519081016040528093929190818152602001838380828437600092019190915250929550610215945050505050565b005b6101f9610381565b604080516001600160a01b039092168252519081900360200190f35b7fe4f9b81944e8039c6b058c79508918a7038d39f0a4cd0477db5a512a8902df4183838360405180806020018060200180602001848103845287818151815260200191508051906020019080838360005b8381101561027e578181015183820152602001610266565b50505050905090810190601f1680156102ab5780820380516001836020036101000a031916815260200191505b50848103835286518152865160209182019188019080838360005b838110156102de5781810151838201526020016102c6565b50505050905090810190601f16801561030b5780820380516001836020036101000a031916815260200191505b50848103825285518152855160209182019187019080838360005b8381101561033e578181015183820152602001610326565b50505050905090810190601f16801561036b5780820380516001836020036101000a031916815260200191505b50965050505050505060405180910390a1505050565b6000546001600160a01b03168156fea265627a7a7231582012038f0fb16d63bca1fe8a4c12b0dd13beea641d02ff3255a7e3664cbb175f4064736f6c634300050b0032",
    "sourcePath": "/Users/jenilthakker/Desktop/Coding/truffle/contracts/dStorage.sol",
    "compiler": {
        "name": "solc",
        "version": "0.5.11+commit.c082d0b4"
    },
    "functionHashes": {
        "blobber()": "c6275cba",
        "uploadFile(string,string,string)": "92bb481a"
    },
    "gasEstimates": {
        "creation": {
            "codeDepositCost": "193000",
            "executionCost": "20473",
            "totalCost": "213473"
        },
        "external": {
            "blobber()": "437",
            "uploadFile(string,string,string)": "infinite"
        }
    }
}