{
    "contractName": "dStorage",
    "abi": [
        {
            "constant": true,
            "inputs": [],
            "name": "OracleAddress",
            "outputs": [
                {
                    "internalType": "address",
                    "name": "",
                    "type": "address"
                }
            ],
            "payable": false,
            "stateMutability": "view",
            "type": "function"
        },
        {
            "constant": true,
            "inputs": [],
            "name": "blobber",
            "outputs": [
                {
                    "internalType": "address",
                    "name": "",
                    "type": "address"
                }
            ],
            "payable": false,
            "stateMutability": "view",
            "type": "function"
        },
        {
            "constant": false,
            "inputs": [
                {
                    "internalType": "string",
                    "name": "_authTicket",
                    "type": "string"
                }
            ],
            "name": "uploadFile",
            "outputs": [],
            "payable": false,
            "stateMutability": "nonpayable",
            "type": "function"
        },
        {
            "inputs": [
                {
                    "internalType": "address",
                    "name": "_OracleAddress",
                    "type": "address"
                }
            ],
            "payable": false,
            "stateMutability": "nonpayable",
            "type": "constructor"
        },
        {
            "anonymous": false,
            "inputs": [
                {
                    "indexed": false,
                    "internalType": "string",
                    "name": "authTicket",
                    "type": "string"
                }
            ],
            "name": "fileUpload",
            "type": "event"
        }
    ],
    "bytecode": "608060405234801561001057600080fd5b506040516102833803806102838339818101604052602081101561003357600080fd5b5051600180546001600160a01b0319166001600160a01b03909216919091179055610220806100636000396000f3fe608060405234801561001057600080fd5b50600436106100415760003560e01c8063373a679a14610046578063c6275cba1461006a578063e37ffc3014610072575b600080fd5b61004e61011a565b604080516001600160a01b039092168252519081900360200190f35b61004e610129565b6101186004803603602081101561008857600080fd5b8101906020810181356401000000008111156100a357600080fd5b8201836020820111156100b557600080fd5b803590602001918460018302840111640100000000831117156100d757600080fd5b91908080601f016020809104026020016040519081016040528093929190818152602001838380828437600092019190915250929550610138945050505050565b005b6001546001600160a01b031681565b6000546001600160a01b031681565b6000546001600160a01b0316331461014f57600080fd5b7fca4a2192da1fb32e9bd25efb0d84b7dcfc15b9fc75d6a082dd9348835a46b126816040518080602001828103825283818151815260200191508051906020019080838360005b838110156101ae578181015183820152602001610196565b50505050905090810190601f1680156101db5780820380516001836020036101000a031916815260200191505b509250505060405180910390a15056fea265627a7a72315820d6b8becbd28377bef961b9c840acc44c111991f0f63d346631df08d7d01b55dd64736f6c634300050b0032",
    "sourcePath": "/Users/jenilthakker/Desktop/Coding/blueprint-box-master/contracts/dStorage.sol",
    "compiler": {
        "name": "solc",
        "version": "0.5.11+commit.c082d0b4"
    },
    "functionHashes": {
        "OracleAddress()": "373a679a",
        "blobber()": "c6275cba",
        "uploadFile(string)": "e37ffc30"
    },
    "gasEstimates": {
        "creation": {
            "codeDepositCost": "108800",
            "executionCost": "infinite",
            "totalCost": "infinite"
        },
        "external": {
            "OracleAddress()": "415",
            "blobber()": "437",
            "uploadFile(string)": "infinite"
        }
    }
}